{
  "contractName": "ParkingMeter",
  "abi": [
    {
      "constant": false,
      "inputs": [
        {
          "name": "user",
          "type": "address"
        }
      ],
      "name": "banUser",
      "outputs": [],
      "payable": false,
      "stateMutability": "nonpayable",
      "type": "function"
    },
    {
      "constant": true,
      "inputs": [],
      "name": "cityWallet",
      "outputs": [
        {
          "name": "",
          "type": "address"
        }
      ],
      "payable": false,
      "stateMutability": "view",
      "type": "function"
    },
    {
      "constant": true,
      "inputs": [
        {
          "name": "user",
          "type": "address"
        }
      ],
      "name": "isParked",
      "outputs": [
        {
          "name": "",
          "type": "bool"
        }
      ],
      "payable": false,
      "stateMutability": "view",
      "type": "function"
    },
    {
      "constant": true,
      "inputs": [],
      "name": "cityWalletBalance",
      "outputs": [
        {
          "name": "",
          "type": "uint256"
        }
      ],
      "payable": false,
      "stateMutability": "view",
      "type": "function"
    },
    {
      "constant": true,
      "inputs": [],
      "name": "decimals",
      "outputs": [
        {
          "name": "",
          "type": "uint8"
        }
      ],
      "payable": false,
      "stateMutability": "view",
      "type": "function"
    },
    {
      "constant": false,
      "inputs": [
        {
          "name": "value",
          "type": "uint256"
        }
      ],
      "name": "setMaxHours",
      "outputs": [],
      "payable": false,
      "stateMutability": "nonpayable",
      "type": "function"
    },
    {
      "constant": true,
      "inputs": [],
      "name": "getHourPrice",
      "outputs": [
        {
          "name": "",
          "type": "uint256"
        }
      ],
      "payable": false,
      "stateMutability": "view",
      "type": "function"
    },
    {
      "constant": false,
      "inputs": [
        {
          "name": "price",
          "type": "uint256"
        }
      ],
      "name": "setHourPrice",
      "outputs": [],
      "payable": false,
      "stateMutability": "nonpayable",
      "type": "function"
    },
    {
      "constant": false,
      "inputs": [
        {
          "name": "user",
          "type": "address"
        }
      ],
      "name": "resetScoring",
      "outputs": [],
      "payable": true,
      "stateMutability": "payable",
      "type": "function"
    },
    {
      "constant": false,
      "inputs": [
        {
          "name": "_cityWallet",
          "type": "address"
        }
      ],
      "name": "setCityWallet",
      "outputs": [],
      "payable": false,
      "stateMutability": "nonpayable",
      "type": "function"
    },
    {
      "constant": true,
      "inputs": [],
      "name": "owner",
      "outputs": [
        {
          "name": "",
          "type": "address"
        }
      ],
      "payable": false,
      "stateMutability": "view",
      "type": "function"
    },
    {
      "constant": false,
      "inputs": [],
      "name": "buyCoins",
      "outputs": [],
      "payable": true,
      "stateMutability": "payable",
      "type": "function"
    },
    {
      "constant": false,
      "inputs": [],
      "name": "stopParking",
      "outputs": [],
      "payable": false,
      "stateMutability": "nonpayable",
      "type": "function"
    },
    {
      "constant": true,
      "inputs": [
        {
          "name": "user",
          "type": "address"
        }
      ],
      "name": "getCoins",
      "outputs": [
        {
          "name": "",
          "type": "uint256"
        }
      ],
      "payable": false,
      "stateMutability": "view",
      "type": "function"
    },
    {
      "constant": false,
      "inputs": [
        {
          "name": "location",
          "type": "string"
        }
      ],
      "name": "startParking",
      "outputs": [],
      "payable": true,
      "stateMutability": "payable",
      "type": "function"
    },
    {
      "constant": true,
      "inputs": [
        {
          "name": "user",
          "type": "address"
        }
      ],
      "name": "whenParked",
      "outputs": [
        {
          "name": "",
          "type": "uint256"
        }
      ],
      "payable": false,
      "stateMutability": "view",
      "type": "function"
    },
    {
      "constant": true,
      "inputs": [],
      "name": "getMaxHours",
      "outputs": [
        {
          "name": "",
          "type": "uint256"
        }
      ],
      "payable": false,
      "stateMutability": "view",
      "type": "function"
    },
    {
      "constant": false,
      "inputs": [],
      "name": "withdrawCoins",
      "outputs": [],
      "payable": false,
      "stateMutability": "nonpayable",
      "type": "function"
    },
    {
      "inputs": [],
      "payable": false,
      "stateMutability": "nonpayable",
      "type": "constructor"
    },
    {
      "anonymous": false,
      "inputs": [
        {
          "indexed": false,
          "name": "user",
          "type": "address"
        },
        {
          "indexed": false,
          "name": "startTime",
          "type": "uint256"
        },
        {
          "indexed": false,
          "name": "value",
          "type": "uint256"
        },
        {
          "indexed": false,
          "name": "location",
          "type": "string"
        }
      ],
      "name": "LogCarHasParked",
      "type": "event"
    },
    {
      "anonymous": false,
      "inputs": [
        {
          "indexed": false,
          "name": "user",
          "type": "address"
        },
        {
          "indexed": false,
          "name": "value",
          "type": "uint256"
        }
      ],
      "name": "LogInsufficentFunds",
      "type": "event"
    },
    {
      "anonymous": false,
      "inputs": [
        {
          "indexed": false,
          "name": "user",
          "type": "address"
        },
        {
          "indexed": false,
          "name": "scoring",
          "type": "uint256"
        }
      ],
      "name": "LogBadScoring",
      "type": "event"
    },
    {
      "anonymous": false,
      "inputs": [
        {
          "indexed": false,
          "name": "user",
          "type": "address"
        },
        {
          "indexed": false,
          "name": "cost",
          "type": "uint256"
        }
      ],
      "name": "LogCarHasLeft",
      "type": "event"
    }
  ],
  "bytecode": "0x6060604052341561000f57600080fd5b336000806101000a81548173ffffffffffffffffffffffffffffffffffffffff021916908373ffffffffffffffffffffffffffffffffffffffff16021790555061384060038190555061019060028190555060036002546003540202600481905550600060058190555061120c806100886000396000f3006060604052600436106100fc576000357c0100000000000000000000000000000000000000000000000000000000900463ffffffff16806310d86b1f1461010157806311bc7bc71461013a5780631bd3a60b1461018f578063312a8aae146101e0578063313ce567146102095780634c3df903146102385780635046d4fb1461025b5780638934969f1461028457806389529c4c146102a757806389c7d0aa146102d55780638da5cb5b1461030e5780639a777d5d14610363578063abe538ba1461036d578063b752c76314610382578063bb6940c7146103cf578063bed32f2614610421578063c8da44251461046e578063ffbb62a314610497575b600080fd5b341561010c57600080fd5b610138600480803573ffffffffffffffffffffffffffffffffffffffff169060200190919050506104ac565b005b341561014557600080fd5b61014d6105f5565b604051808273ffffffffffffffffffffffffffffffffffffffff1673ffffffffffffffffffffffffffffffffffffffff16815260200191505060405180910390f35b341561019a57600080fd5b6101c6600480803573ffffffffffffffffffffffffffffffffffffffff1690602001909190505061061b565b604051808215151515815260200191505060405180910390f35b34156101eb57600080fd5b6101f3610674565b6040518082815260200191505060405180910390f35b341561021457600080fd5b61021c61067a565b604051808260ff1660ff16815260200191505060405180910390f35b341561024357600080fd5b610259600480803590602001909190505061067f565b005b341561026657600080fd5b61026e6106e4565b6040518082815260200191505060405180910390f35b341561028f57600080fd5b6102a560048080359060200190919050506106ee565b005b6102d3600480803573ffffffffffffffffffffffffffffffffffffffff16906020019091905050610753565b005b34156102e057600080fd5b61030c600480803573ffffffffffffffffffffffffffffffffffffffff16906020019091905050610806565b005b341561031957600080fd5b6103216108e1565b604051808273ffffffffffffffffffffffffffffffffffffffff1673ffffffffffffffffffffffffffffffffffffffff16815260200191505060405180910390f35b61036b610906565b005b341561037857600080fd5b61038061099a565b005b341561038d57600080fd5b6103b9600480803573ffffffffffffffffffffffffffffffffffffffff16906020019091905050610bb8565b6040518082815260200191505060405180910390f35b61041f600480803590602001908201803590602001908080601f01602080910402602001604051908101604052809392919081815260200183838082843782019150505050505091905050610c04565b005b341561042c57600080fd5b610458600480803573ffffffffffffffffffffffffffffffffffffffff16906020019091905050610f2d565b6040518082815260200191505060405180910390f35b341561047957600080fd5b610481610f79565b6040518082815260200191505060405180910390f35b34156104a257600080fd5b6104aa610f83565b005b6000809054906101000a900473ffffffffffffffffffffffffffffffffffffffff1673ffffffffffffffffffffffffffffffffffffffff163373ffffffffffffffffffffffffffffffffffffffff1614806105545750600160009054906101000a900473ffffffffffffffffffffffffffffffffffffffff1673ffffffffffffffffffffffffffffffffffffffff163373ffffffffffffffffffffffffffffffffffffffff16145b151561055f57600080fd5b6105ac600660008373ffffffffffffffffffffffffffffffffffffffff1673ffffffffffffffffffffffffffffffffffffffff1681526020019081526020016000206005015460016110b6565b600660008373ffffffffffffffffffffffffffffffffffffffff1673ffffffffffffffffffffffffffffffffffffffff1681526020019081526020016000206005018190555050565b600160009054906101000a900473ffffffffffffffffffffffffffffffffffffffff1681565b6000600660008373ffffffffffffffffffffffffffffffffffffffff1673ffffffffffffffffffffffffffffffffffffffff16815260200190815260200160002060030160009054906101000a900460ff169050919050565b60055481565b600281565b6000809054906101000a900473ffffffffffffffffffffffffffffffffffffffff1673ffffffffffffffffffffffffffffffffffffffff163373ffffffffffffffffffffffffffffffffffffffff161415156106da57600080fd5b8060038190555050565b6000600254905090565b6000809054906101000a900473ffffffffffffffffffffffffffffffffffffffff1673ffffffffffffffffffffffffffffffffffffffff163373ffffffffffffffffffffffffffffffffffffffff1614151561074957600080fd5b8060028190555050565b600160009054906101000a900473ffffffffffffffffffffffffffffffffffffffff1673ffffffffffffffffffffffffffffffffffffffff163373ffffffffffffffffffffffffffffffffffffffff161415156107af57600080fd5b60045434101515610803576000600660008373ffffffffffffffffffffffffffffffffffffffff1673ffffffffffffffffffffffffffffffffffffffff168152602001908152602001600020600501819055505b50565b6000809054906101000a900473ffffffffffffffffffffffffffffffffffffffff1673ffffffffffffffffffffffffffffffffffffffff163373ffffffffffffffffffffffffffffffffffffffff1614151561086157600080fd5b600073ffffffffffffffffffffffffffffffffffffffff168173ffffffffffffffffffffffffffffffffffffffff161415151561089d57600080fd5b80600160006101000a81548173ffffffffffffffffffffffffffffffffffffffff021916908373ffffffffffffffffffffffffffffffffffffffff16021790555050565b6000809054906101000a900473ffffffffffffffffffffffffffffffffffffffff1681565b610952600660003373ffffffffffffffffffffffffffffffffffffffff1673ffffffffffffffffffffffffffffffffffffffff16815260200190815260200160002060000154346110b6565b600660003373ffffffffffffffffffffffffffffffffffffffff1673ffffffffffffffffffffffffffffffffffffffff16815260200190815260200160002060000181905550565b600080600042600660003373ffffffffffffffffffffffffffffffffffffffff1673ffffffffffffffffffffffffffffffffffffffff168152602001908152602001600020600101540392506109f46003546002546110d4565b9150610a0083836110ef565b9050610a4e600660003373ffffffffffffffffffffffffffffffffffffffff1673ffffffffffffffffffffffffffffffffffffffff1681526020019081526020016000206000015482611122565b600660003373ffffffffffffffffffffffffffffffffffffffff1673ffffffffffffffffffffffffffffffffffffffff168152602001908152602001600020600001819055506000600660003373ffffffffffffffffffffffffffffffffffffffff1673ffffffffffffffffffffffffffffffffffffffff16815260200190815260200160002060030160006101000a81548160ff02191690831515021790555042600660003373ffffffffffffffffffffffffffffffffffffffff1673ffffffffffffffffffffffffffffffffffffffff16815260200190815260200160002060020181905550610b42600554826110b6565b6005819055507fc28eb9a6c19cd218c1dbc72f67da8f5879793eb50afa6b0a52b20799395404a03384604051808373ffffffffffffffffffffffffffffffffffffffff1673ffffffffffffffffffffffffffffffffffffffff1681526020018281526020019250505060405180910390a1505050565b6000600660008373ffffffffffffffffffffffffffffffffffffffff1673ffffffffffffffffffffffffffffffffffffffff168152602001908152602001600020600001549050919050565b60035460025402600660003373ffffffffffffffffffffffffffffffffffffffff1673ffffffffffffffffffffffffffffffffffffffff16815260200190815260200160002060000154340110151515610c5d57600080fd5b60001515600660003373ffffffffffffffffffffffffffffffffffffffff1673ffffffffffffffffffffffffffffffffffffffff16815260200190815260200160002060030160009054906101000a900460ff161515141515610cbf57600080fd5b610d0b600660003373ffffffffffffffffffffffffffffffffffffffff1673ffffffffffffffffffffffffffffffffffffffff16815260200190815260200160002060000154346110b6565b600660003373ffffffffffffffffffffffffffffffffffffffff1673ffffffffffffffffffffffffffffffffffffffff1681526020019081526020016000206000018190555042600660003373ffffffffffffffffffffffffffffffffffffffff1673ffffffffffffffffffffffffffffffffffffffff1681526020019081526020016000206001018190555080600660003373ffffffffffffffffffffffffffffffffffffffff1673ffffffffffffffffffffffffffffffffffffffff1681526020019081526020016000206004019080519060200190610dee92919061113b565b506001600660003373ffffffffffffffffffffffffffffffffffffffff1673ffffffffffffffffffffffffffffffffffffffff16815260200190815260200160002060030160006101000a81548160ff0219169083151502179055507fd805bf639b208253656bc10258eb3cb9124f6e51033acf136783b613e415d3f133423484604051808573ffffffffffffffffffffffffffffffffffffffff1673ffffffffffffffffffffffffffffffffffffffff16815260200184815260200183815260200180602001828103825283818151815260200191508051906020019080838360005b83811015610eed578082015181840152602081019050610ed2565b50505050905090810190601f168015610f1a5780820380516001836020036101000a031916815260200191505b509550505050505060405180910390a150565b6000600660008373ffffffffffffffffffffffffffffffffffffffff1673ffffffffffffffffffffffffffffffffffffffff168152602001908152602001600020600101549050919050565b6000600354905090565b6000801515600660003373ffffffffffffffffffffffffffffffffffffffff1673ffffffffffffffffffffffffffffffffffffffff16815260200190815260200160002060030160009054906101000a900460ff161515141515610fe657600080fd5b600660003373ffffffffffffffffffffffffffffffffffffffff1673ffffffffffffffffffffffffffffffffffffffff1681526020019081526020016000206000015490506000600660003373ffffffffffffffffffffffffffffffffffffffff1673ffffffffffffffffffffffffffffffffffffffff168152602001908152602001600020600001819055503373ffffffffffffffffffffffffffffffffffffffff166108fc829081150290604051600060405180830381858888f1935050505015156110b357600080fd5b50565b60008082840190508381101515156110ca57fe5b8091505092915050565b60008082848115156110e257fe5b0490508091505092915050565b60008082840290506000841480611110575082848281151561110d57fe5b04145b151561111857fe5b8091505092915050565b600082821115151561113057fe5b818303905092915050565b828054600181600116156101000203166002900490600052602060002090601f016020900481019282601f1061117c57805160ff19168380011785556111aa565b828001600101855582156111aa579182015b828111156111a957825182559160200191906001019061118e565b5b5090506111b791906111bb565b5090565b6111dd91905b808211156111d95760008160009055506001016111c1565b5090565b905600a165627a7a7230582011f61c533a68da0ec3707d55dad1b2e7773159a15ee2685f43bca3b901c2cbf00029",
  "source": "pragma solidity ^ 0.4.17;\n\nimport 'zeppelin-solidity/contracts/math/SafeMath.sol';\n\ncontract ParkingMeter {\n\n    address public owner;\n    address public cityWallet;\n    using SafeMath for uint256;\n    uint256 hourPrice;\n    uint256 maxHours;\n    uint256 fineCost;\n    uint8 public constant decimals = 2;\n    uint256 public cityWalletBalance;\n\n    struct Parking {\n        uint coins;\n        uint startTime;\n        uint endTime;\n        bool isParked;\n        string location;\n        uint scoring;\n    }\n\n    mapping(address => Parking) balances;\n\n\n    function ParkingMeter() public {\n        owner = msg.sender;\n        maxHours = 14400;\n        hourPrice = 400;\n        fineCost = maxHours * hourPrice * 3;\n        cityWalletBalance = 0;\n    }\n\n    function setCityWallet(address _cityWallet) public onlyOwner {\n        require(_cityWallet != address(0));\n        cityWallet = _cityWallet;\n    }\n\n\n    modifier onlyOwner() {\n        require(msg.sender == owner);\n        _;\n    }\n\n    modifier onlyCity() {\n        require(msg.sender == owner || msg.sender == cityWallet);\n        _;\n    }\n\n    function setHourPrice(uint256 price) onlyOwner public {\n        hourPrice = price;\n    }\n\n    function getHourPrice() public constant returns (uint256) {\n        return hourPrice;\n    }\n\n    function setMaxHours(uint256 value) onlyOwner public {\n        maxHours = value;\n    }\n\n    function getMaxHours() public constant returns(uint256) {\n        return maxHours;\n    }\n\n    event LogCarHasParked(address user, uint startTime, uint value, string location);\n    event LogInsufficentFunds(address user, uint value);\n    event LogBadScoring(address user, uint scoring);\n\n    function buyCoins() payable public {\n        balances[msg.sender].coins = SafeMath.add(balances[msg.sender].coins, msg.value);\n    }\n\n    function withdrawCoins() public {\n        require(balances[msg.sender].isParked == false);\n        \n        uint valueToSend = balances[msg.sender].coins;\n        balances[msg.sender].coins = 0;\n        msg.sender.transfer(valueToSend);\n    }\n\n    function startParking(string location) payable public {\n        require ((msg.value + balances[msg.sender].coins) >= (hourPrice * maxHours));\n        \n        require(balances[msg.sender].isParked == false);\n\n        balances[msg.sender].coins = SafeMath.add(balances[msg.sender].coins, msg.value);\n        balances[msg.sender].startTime = block.timestamp;\n        balances[msg.sender].location = location;\n        balances[msg.sender].isParked = true;\n        \n        LogCarHasParked(msg.sender, block.timestamp, msg.value, location);\n    }\n\n    \n    event LogCarHasLeft(address user, uint cost);\n\n    function stopParking() public {\n        \n        uint256 time = balances[msg.sender].startTime - block.timestamp;\n        uint256 costPerSecond = SafeMath.div(maxHours,hourPrice);\n        uint256 cost = SafeMath.mul(time,costPerSecond);\n        balances[msg.sender].coins = SafeMath.sub(balances[msg.sender].coins,cost);\n        balances[msg.sender].isParked = false;\n        balances[msg.sender].endTime = block.timestamp;\n        cityWalletBalance = SafeMath.add(cityWalletBalance,cost);\n        LogCarHasLeft(msg.sender, time);\n    }\n\n    function getCoins(address user) public constant returns(uint256) {\n        return balances[user].coins;\n    }\n\n    function isParked(address user) public constant returns(bool) {\n        return balances[user].isParked;\n    }\n\n    function whenParked(address user) public constant returns(uint) {\n        return balances[user].startTime;\n    }\n\n    function banUser(address user) onlyCity public {\n        balances[user].scoring = SafeMath.add(balances[user].scoring, 1);\n    }\n\n    function resetScoring(address user) payable public {\n        require (msg.sender == cityWallet);\n        if(msg.value >= fineCost) {\n            balances[user].scoring = 0;\n        }\n    }\n\n\n\n}",
  "sourcePath": "C:\\Users\\matia\\Documents\\repositorio\\parquimetro\\contracts\\ParkingMeter.sol",
  "compiler": {
    "name": "solc",
    "version": "0.4.18+commit.9cf6e910.Emscripten.clang"
  },
  "schemaVersion": "1.0.1",
  "updatedAt": "2017-11-28T00:35:12.887Z"
}